:020000040000FA
:040000000DEF00F010
:040008005FEF0DF0A9
:10001800FF00BAEF0DF0F9EF00F0600093F1D9FF9F
:10002800600097F1DAFF2F0EDF6E20EE01F06451C9
:10003800D9266551DA22030EDF6E20EE06F06451F0
:10004800D9266551DA22010EDF6E20EE02F06451E6
:10005800D9266551DA22000EDF6E20EE03F06451D6
:10006800D9266551DA22040EDF6E20EE05F06451C0
:10007800D9266551DA22000EDF6E20EE04F06451B5
:10008800D9266551DA22040EDF6E62EF01F06000B6
:1000980093F1D9FF600097F1DAFF1F0EDF6E20EEB3
:1000A80001F06451D9266551DA22030EDF6E20EE85
:1000B80006F06451D9266551DA22010EDF6E20EE72
:1000C80002F06451D9266551DA22000EDF6E20EE67
:1000D80003F06451D9266551DA22040EDF6E20EE52
:1000E80005F06451D9266551DA22000EDF6E20EE44
:1000F80004F06451D9266551DA22040EDF6E62EFEE
:1001080001F0600093F1D9FF600097F1DAFF0B0E60
:10011800DF6E20EE01F06451D9266551DA22030E14
:10012800DF6E20EE06F06451D9266551DA22010E01
:10013800DF6E20EE02F06451D9266551DA22000EF6
:10014800DF6E20EE03F06451D9266551DA22040EE1
:10015800DF6E20EE05F06451D9266551DA22000ED3
:10016800DF6E20EE04F06451D9266551DA22040EC0
:10017800DF6E62EF01F0600093F1D9FF600097F144
:10018800DAFF000EDF6E20EE01F06451D9266551CA
:10019800DA22030EDF6E20EE06F06451D92665518F
:1001A800DA22010EDF6E20EE02F06451D926655185
:1001B800DA22000EDF6E20EE03F06451D926655175
:1001C800DA22040EDF6E20EE05F06451D92665515F
:1001D800DA22000EDF6E20EE04F06451D926655154
:1001E800DA22040EDF6E62EF01F060C066F061C0D3
:1001F80067F062C068F063C069F000016951000AE5
:10020800D8B449EF01F0010AD8B454EF01F0030A59
:10021800D8B45BEF01F062EF01F06751420AD8B43D
:1002280018EF01F062EF01F06651400AD8B4BFEF51
:1002380000F062EF01F067511B0AD8B426EF01F015
:1002480062EF01F06651000AD8B485EF00F062EF62
:1002580001F06751480AD8B434EF01F062EF01F0B9
:100268006651000AD8B44BEF00F062EF01F0675115
:100278006C0AD8B442EF01F062EF01F06651000A4F
:10028800D8B411EF00F062EF01F068510F0AD8B44A
:1002980011EF01F0B80AD8B41FEF01F062EF01F0D6
:1002A8006851E80AD8B42DEF01F062EF01F0685107
:1002B800DC0AD8B43BEF01F062EF01F01200D3EC96
:1002C8000EF043EC0EF013EC0FF075EC0CF020EC94
:1002D8000FF00CEC0FF0B9EC0EF0D28EC492330E86
:1002E8003A01116FC4806091100EED6F000E00018D
:1002F800606F1B0E616FB70E626F000E636FC60EE4
:10030800646F000E656F0FEC00F0C60E0001606FA1
:10031800000E616FB60E626F090E636F1EEC04F07B
:10032800000E00016F6F010E706F000E726F640E89
:10033800716F780E736F0D0E746F900E756F1D0EC2
:10034800766F11EC0EF0F2EC0EF060C0B5F061C003
:10035800B6F062C0B7F063C0B8F004EC0FF017EC69
:100368000FF0000E0001B96FF2EC0EF00001B5516C
:10037800605DB16FB6516159B26FB7516259B36FD1
:10038800B8516359B46FB451B311B21109E1FB0EFE
:10039800B15DD8A0D2EF01F0D4EF01F06CEF02F01C
:1003A800010EBA6F5CEC03F00001BA175DEC0AF0BD
:1003B8000001BA17DA5123EC0FF00001BA17BA514D
:1003C800D8B4E9EF01F0EBEF01F0EDEF01F01FEC2D
:1003D8000DF00001DA5132EC09F0F2EC0EF00001F8
:1003E800D151605DB16FD2516159B26FD351625929
:1003F800B36FD4516359B46FB451B31109E1E90E25
:10040800B15D030EB259D8B00CEF02F00EEF02F056
:1004180021EF02F01DEC0FF00009D8A416EF02F04E
:1004280018EF02F021EF02F00001DA51D8A41FEF13
:1004380002F021EF02F025EF02F017EC0FF051EF78
:1004480002F0DA05D8A42BEF02F02DEF02F031EF1D
:1004580002F01AEC0FF051EF02F0F2EC0EF060C06F
:1004680066F061C067F062C068F063C069F0130E9F
:1004780000016A6F000E6B6F000E6C6F000E6D6FDF
:10048800BB0E6E6F000E6F6FCAEC07F0BB0E00015B
:10049800766F000E776FD7EC0DF00001B951D8B424
:1004A80058EF02F05AEF02F05FEF02F0BC84000E42
:1004B800B96F62EF02F0BC94010EB96FF2EC0EF066
:1004C80060C0B5F061C0B6F062C0B7F063C0B8F004
:1004D80055EC0BF0B8EF01F00DEF00F090BE77EFA0
:1004E80002F079EF02F080EF02F090AC7EEF02F0BC
:1004F80080EF02F082EF02F0909E909C3901A5A156
:1005080088EF02F08AEF02F0D5EF02F06F0008FEE4
:1005180013F0050E146ED8901332142E8FEF02F0DC
:1005280013506F0004FE15F0166AD890153616366B
:10053800D89015361636D890153616361510176E0B
:100548001650186E85500F0B196E1A0E016E000E9C
:10055800026E860E036E3F0E046E19C005F0066A21
:10056800A3EC0CF031503210D8B4BDEF02F0BFEF5D
:1005780002F0D0EF02F0170E0B6E000E0C6E02D8D0
:10058800D0EF02F00500FA6E3150FD6E3250FE6E6B
:10059800F850FF6EFA5012003901A591809E5BEF6A
:1005A80003F0A5A3DAEF02F0DCEF02F029EF03F085
:1005B8006D00C8FF13F0050E146ED8901332142E78
:1005C800E1EF02F013506D00C4FF15F0166AD890E1
:1005D80015361636D89015361636D890153616367E
:1005E8001510226E1650236E3701F5510F0B246E2D
:1005F800250E016E000E026EF60E036E370E046EA7
:1006080024C005F0066AA3EC0CF031503210D8B4BF
:1006180010EF03F012EF03F023EF03F0220E0B6E3E
:10062800000E0C6E02D823EF03F00500FA6E31506D
:10063800FD6E3250FE6EF850FF6EFA50120039010E
:10064800A5933701F09F5BEF03F0A5A52EEF03F00C
:1006580030EF03F033EF03F0A5955BEF03F0A5A7A8
:1006680038EF03F03AEF03F03DEF03F0A5975BEFA7
:1006780003F0A5A942EF03F044EF03F047EF03F0BE
:10068800A5995BEF03F0A5AF4CEF03F04EEF03F035
:1006980051EF03F0A59F5BEF03F0A5AB56EF03F016
:1006A80058EF03F05BEF03F0A59B5BEF03F012003C
:1006B800000E40EC0DF060C08DF061C08EF08DC072
:1006C800AAF08EC0ABF0CD0E00016E6F7C0E6F6F7E
:1006D800400E706FAAC068F0ABC069F081EC0EF0F4
:1006E80068C06BF069C06CF06AC06DF098EC05F0FA
:1006F8006BC07AF06CC07BF06DC07CF02BEC06F020
:100708007AC0AAF07BC0ABF0400E0001AA5D1F0EB4
:10071800AB59D8A092EF03F094EF03F09FEF03F0EA
:100728001D0EAA5D250EAB59D8A09DEF03F09FEFD3
:1007380003F0FBEF03F0F2EC0EF060C089F061C04B
:100748008AF062C08BF063C08CF0000E0001936FDA
:10075800000E926FAB51926FAAC093F0400EAA5D43
:100768001F0EAB59D8A0BBEF03F0BDEF03F0C3EFEA
:1007780003F0000E916F050E906FC7EF03F0000EA7
:10078800916F040E906F90C08FF089C066F08AC098
:1007980067F08BC068F08CC069F08FC06AF0920E69
:1007A8006B6F000E6C6F020E6D6F940E6E6F000E05
:1007B8006F6FCAEC07F0940E0001766F000E776F2A
:1007C800D7EC0DF04C0E0001AA5D1D0EAB59D8B048
:1007D800F0EF03F0F2EF03F0F6EF03F0010ED96F3C
:1007E800F8EF03F0000ED96F000E1DEF04F0F2ECE5
:1007F8000EF060C064F061C065F062C066F063C06E
:1008080067F0050E0001686FAAC069F0ABC06AF016
:100818009F0E6B6F000E6C6F99EC0BF09F0E000132
:10082800766F000E776FD7EC0DF0000E0001D96FD0
:10083800010E120062C031F063C032F08F501F0BFE
:1008480080098F6E8E38E832070B040AD8A42FEF80
:1008580004F031EF04F026EF04F03F0E9116370153
:100868000091000120EE01F06051D9266151DA2291
:10087800DF50646F643B64476447370103510001EC
:1008880064193F0B64193701036F600083F1D9FFC6
:10089800600087F1DAFFDF500001646F3701035110
:1008A80000016419C00B64193701036F000120EEC1
:1008B80006F06051D9266151DA22DF50646F643343
:1008C800643337010451000164197F0B641937013F
:1008D800046F000120EE02F06051D9266151DA223E
:1008E800DF50646F643B644764473701045100017B
:1008F8006419BF0B64193701046F000120EE03F07F
:100908006051D9266151DA22DF50646F6447644729
:1009180064473701045100016419C70B6419370192
:10092800046F000120EE05F06051D9266151DA22EA
:10093800DF50646F3701045100016419F80B641922
:100948003701046F000120EE04F06051D92661518F
:10095800DA22DF50646F3701055100016419F80B82
:1009680064193701056F058F059D000EB86F000EDD
:10097800B96F000EBC6F000EBD6F808A808C8084BA
:100988003901958F959D958B959995979595958313
:1009980095811F0E8F168E38E832070B0009D8A4F0
:1009A800D8EF04F0DAEF04F0CFEF04F012000BC038
:1009B80001F00CC002F0FDEC0CF001C00FF002C019
:1009C80010F00BC001F00CC002F059EC0EF00B0A4D
:1009D800D8A4F1EF04F0F3EF04F024EF05F097EF5B
:1009E80005F00BC005F00CC006F0D0EC0CF005C00B
:1009F80011F006C012F011501210D8A406EF05F03D
:100A080008EF05F08DEF05F0000E0001DA6F8DEFAD
:100A180005F08DEF05F00BC005F00CC006F0FDECFD
:100A280009F005500001DA6F8DEF05F0BC96BC9413
:100A3800BC968DEF05F0BC86BC84BC868DEF05F0B6
:100A48000FC00DF010C00EF00E50000AD8B443EFDE
:100A580005F0010AD8B44EEF05F0050AD8B45DEFE9
:100A680005F0010AD8B468EF05F0030AD8B477EFA7
:100A780005F0010AD8B482EF05F08DEF05F00D50AE
:100A8800600AD8B4F5EF04F0A00AD8B40FEF05F067
:100A98008DEF05F00D50200AD8B40DEF05F0A00A2F
:100AA800D8B40DEF05F0600AD8B48DEF05F08DEFDE
:100AB80005F00D50600AD8B48DEF05F0A00AD8B43F
:100AC8008DEF05F08DEF05F00D50200AD8B48DEFAD
:100AD80005F0A00AD8B48DEF05F0600AD8B48DEF00
:100AE80005F08DEF05F00D50400AD8B48DEF05F0F4
:100AF800E00AD8B48DEF05F08DEF05F00D50C00A6F
:100B0800D8B41FEF05F0200AD8B41AEF05F08DEF1E
:100B180005F0FBEC0EF001C0D1F002C0D2F003C02A
:100B2800D3F004C0D4F012006DC071F00001726BF4
:100B3800736B6C35713701E372817151746F745145
:100B4800D8A4A9EF05F0ABEF05F0B3EF05F0000E60
:100B58006B6F000E6C6F000E6D6F2AEF06F070C0A1
:100B680071F0726B736B6F35713701E3728171517C
:100B7800796F7951D8A4C3EF05F0C5EF05F0CDEF33
:100B880005F0000E6B6F000E6C6F000E6D6F2AEF94
:100B980006F079517B0F74276DC079F07051791B7D
:100BA800800E79176C8F6F8FFF0E6E17FF0E6F1701
:100BB800000E7017000E756F000E766F000E776FBF
:100BC800070E786F6BA1EBEF05F0EDEF05F0F3EF93
:100BD80005F06E5175276F51762370517723D890A1
:100BE8006D336C336B33D8906E376F377037782F1F
:100BF800E6EF05F0090E786F6BA105EF06F007EF39
:100C080006F00DEF06F06E5175276F51762370517F
:100C18007723D8906D336C336B33D8907733763332
:100C28007533782F00EF06F075C060F076C061F07C
:100C380077C062F074C063F079C064F045EC07F0E7
:100C480060C06BF061C06CF062C06DF012007CC0D7
:100C58007EF000017F6B806B7B357E3701E37F81FF
:100C68007E51886F8851D8A43CEF06F03EEF06F01D
:100C780048EF06F0000E7A6F000E7B6F000E7C6F57
:100C8800000E7D6FBBEF06F0170E7E6F7AC07FF007
:100C98007BC080F07CC081F07E29826F58EF06F01F
:100CA800D890813380337F33822F54EF06F00001D0
:100CB8007F51836F7B8FFF0E7A17FF0E7B17000E15
:100CC8007C177A51846F7B51856F7C51866F876B57
:100CD8008E0E885F88BF75EF06F073EF06F08BEF16
:100CE80006F08851800A8F0FD8B07DEF06F07FEFAD
:100CF80006F081EF06F03EEF06F0D8908733863392
:100D080085338433883F81EF06F0A3EF06F0170E92
:100D1800886591EF06F093EF06F09BEF06F03EEF43
:100D280006F0D89084378537863787378807885103
:100D3800D8A4A1EF06F0A3EF06F095EF06F08351D3
:100D4800D8B4A9EF06F0ABEF06F0B3EF06F0871FB3
:100D5800861F851F846D000E85238623872384C004
:100D68007AF085C07BF086C07CF087C07DF01200E9
:100D78003701E0A7C2EF06F0C4EF06F0C6EF06F0B1
:100D880044EF07F0000120EE02F06B51D9266C51B8
:100D9800DA22090EDF60D3EF06F0D5EF06F044EF54
:100DA80007F06000AFF1D9FF6000B3F1DAFFDE525F
:100DB800080EDE5CD8A0E3EF06F0E5EF06F0E7EFFB
:100DC80006F044EF07F0FC0E3701E0176000AFF1C2
:100DD800D9FF6000B3F1DAFF6F0078FF6DF06F00A4
:100DE80074FF6EF00001D8906E336D33D8906E3377
:100DF8006D33D8906E336D336D513701E16F6000FC
:100E0800AFF1D9FF6000B3F1DAFFDF5000016D6F79
:100E1800070E6D17050E6E6FD8906D376E2F10EF99
:100E280007F06D513701E26FE59D000120EE02F0F9
:100E38006B51D9266C51DA22DF506D6F3701E551BD
:100E480000016D19F00B6D193701E56FE60E000111
:100E5800606F370E616F030E6B25626F000E6C2199
:100E6800636F20EE02F06B51D9266C51DA22DF5005
:100E78006D6F6D51646F656B47EC0CF03701E0875F
:100E8800120000016351D8B44CEF07F04EEF07F0A1
:100E980058EF07F0605161116211D8A456EF07F0BE
:100EA80058EF07F065EF07F0000E606F000E616FF6
:100EB800000E626FC9EF07F0632BD890623361337D
:100EC8006033000E6015656F000E6115666FFE0ECB
:100ED8006215676F655166116711D8A476EF07F040
:100EE80078EF07F060EF07F085EF07F0632B010E4E
:100EF8006027000E6123000E6223D89062336133AD
:100F08006033000E6015656F000E6115666FFF0E89
:100F18006215676F655166116711D8A496EF07F0DF
:100F280098EF07F07AEF07F09FEF07F06307D89084
:100F380060376137623761BFA4EF07F0A6EF07F0AB
:100F4800AEEF07F0020E6361ACEF07F0AEEF07F00B
:100F58009AEF07F063B1B3EF07F0B5EF07F0B6EF1C
:100F680007F0619FD8906333635162136451D8B41A
:100F7800C0EF07F0C2EF07F0C3EF07F0628F60C061
:100F880060F061C061F062C062F0120000016D5152
:100F9800D8B4D1EF07F0D3EF07F0DEEF07F06B51CD
:100FA8006C11D8A4DAEF07F0DCEF07F0DEEF07F0FA
:100FB8004DEF08F06E516F11D8A4E5EF07F0E7EF99
:100FC80007F0E9EF07F04DEF08F0040E6D65EFEF5D
:100FD80007F0F1EF07F0F3EF07F04DEF08F06000CE
:100FE800BBF1D9FF6000BFF1DAFF2B0EDE6E050EF4
:100FF800DD6E66C060F067C061F068C062F069C00D
:1010080063F06EC064F06FC065F0F4EC0DF00001A1
:1010180020EE06F06E51D9266F51DA226000ABF14E
:10102800DFFF000E746F000E736F32EF08F073511C
:101038006B25D96E74516C21DA6E73516E25706F01
:1010480074516F21716F070E7025E16E000E7121CA
:10105800E26E6F007FFFE7FF734B742B6D51706F6B
:10106800716B7051735D7451800A726F7151800A8F
:101078007259D8A042EF08F044EF08F01BEF08F0CF
:1010880020EE02F06E51D9266F51DA226D51040F0D
:10109800DF6E12006CC060F06DC061F07EEC0DF088
:1010A8000009D8B45AEF08F05CEF08F05EEF08F0DA
:1010B800BFEF08F06CC066F06DC067F0000120EE6D
:1010C80006F06C51D9266D51DA226F0078FF68F06E
:1010D8006F0074FF69F018EC0CF066C074F067C01C
:1010E80075F06EC060F06FC061F06000B3F1D9FFB9
:1010F8006000B7F1DAFF6F0078FF70F06F0074FFDF
:1011080071F0000174517025626F75517121636F20
:1011180020EE02F06C51D9266D51DA226F0078FF6B
:1011280064F06F0074FF65F047EC0CF0000120EEEE
:1011380004F06C51D9266D51DA2210EE06F06C518C
:10114800E1266D51E222E62A000EE522DE50E65C39
:10115800DE50E658D8A0B3EF08F0B5EF08F0BFEFBF
:1011680008F020EE06F06C51D9266D51DA22000EF7
:10117800DE6E000EDD6E12006CC060F06DC061F0B6
:10118800B7EC0AF00009D8B4CCEF08F0CEEF08F0BD
:10119800D0EF08F031EF09F06CC066F06DC067F071
:1011A800000120EE08F06C51D9266D51DA226F004B
:1011B80078FF68F06F0074FF69F018EC0CF066C0F7
:1011C80074F067C075F06000B3F1D9FF6000B7F143
:1011D800DAFF6F0078FF70F06F0074FF71F00001A4
:1011E80074517025606F75517121616F6EC062F026
:1011F8006FC063F020EE02F06C51D9266D51DA22EF
:101208006F0078FF64F06F0074FF65F047EC0CF036
:10121800000120EE04F06C51D9266D51DA2210EE4F
:1012280008F06C51E1266D51E222E62A000EE52213
:10123800DE50E65CDE50E658D8A025EF09F027EF2F
:1012480009F031EF09F020EE08F06C51D9266D5104
:10125800DA22000EDE6E000EDD6E12000001786FDD
:10126800DEEC0EF000017A6FE8EC0EF000017B6F07
:101278007A51D8B442EF09F044EF09F050EF09F081
:101288007B51D8A44AEF09F04CEF09F050EF09F070
:10129800000E796F7AEF09F07A51D8A456EF09F069
:1012A80058EF09F064EF09F07B51D8B45EEF09F00C
:1012B80060EF09F064EF09F0010E796F7AEF09F039
:1012C8007A51D8A46AEF09F06CEF09F078EF09F0C9
:1012D8007B51D8A472EF09F074EF09F078EF09F0A8
:1012E800020E796F7AEF09F0030E796FF2EC0EF0C7
:1012F80060C066F061C067F062C068F063C069F002
:1013080079C06AF078C06BF0040E00016D6F600E52
:101318006C6F7C0E6E6F000E6F6F9BEC09F07C0E8D
:101328000001766F000E776FD7EC0DF01200000108
:101338006E516F11D8A4A3EF09F0A5EF09F0A7EF3C
:1013480009F0FCEF09F0600E6C1909E1040E6D1943
:10135800D8B4B1EF09F0B3EF09F0C1EF09F0C00E4E
:101368006C1909E1040E6D19D8B4BDEF09F0BFEF8F
:1013780009F0C1EF09F0FCEF09F00B0E6C11706F6A
:10138800000E6D11716F6000BBF1D9FF6000BFF1F5
:10139800DAFF6000C3F1DEFF6000C7F1DDFF66C061
:1013A80060F067C061F068C062F069C063F06EC049
:1013B80064F06FC065F0F4EC0DF0000120EE06F06B
:1013C8006E51D9266F51DA226000ABF1DFFF20EEB3
:1013D80007F06E51D9266F51DA226000AFF1DFFFB6
:1013E80020EE02F06E51D9266F51DA22050EDF6E1B
:1013F800120005500610D8A404EF0AF006EF0AF010
:101408000AEF0AF0056806685CEF0AF005C001F00B
:1014180006C002F0FDEC0CF001C009F002C00AF0B1
:1014280030EF0AF020EE07F00550D9260650DA22F0
:10143800DF50076E0750056E066A5CEF0AF020EE73
:1014480006F00550D9260650DA22DF50076E0750FD
:10145800056E066A5CEF0AF009C007F00AC008F0DA
:101468000850000AD8B443EF0AF0010AD8B44AEF8A
:101478000AF0050AD8B451EF0AF006EF0AF007504F
:10148800C00AD8B423EF0AF006EF0AF00750200A82
:10149800D8B423EF0AF006EF0AF00750600AD8B470
:1014A80016EF0AF0A00AD8B416EF0AF006EF0AF011
:1014B8001200010E40EC0DF060C07CF061C07DF0C0
:1014C8007CC060F07DC061F0000E0001636F140EF7
:1014D800626FDDEC0BF060C080F061C081F000014C
:1014E80081BF80EF0AF02D0E805D010E8159D8A0D2
:1014F80080EF0AF082EF0AF0B5EF0AF0F2EC0EF096
:1015080060C078F061C079F062C07AF063C07BF0A7
:10151800000E00017F6F000E7E6F81517E6F80C0CC
:101528007FF078C066F079C067F07AC068F07BC059
:1015380069F0010E6A6F7E0E6B6F000E6C6F020E03
:101548006D6F820E6E6F000E6F6FCAEC07F0820E21
:101558000001766F000E776FD7EC0DF0000EB6EF36
:101568000AF0010E1200000120EE06F06051D926A3
:101578006151DA2210EE08F06051E1266151E22251
:101588006F0098FF64F06F0094FF65F0010E642708
:10159800000E6523DE50641909E1DE506519D8B4E0
:1015A800D8EF0AF0DAEF0AF00BEF0BF020EE04F0B8
:1015B8006051D9266151DA2210EE08F06051E12617
:1015C8006151E2226F0098FF64F06F0094FF65F0AC
:1015D800010E6427000E6523DE50641907E1DE5012
:1015E8006519D8A4FAEF0AF0FCEF0AF00EEF0BF039
:1015F80020EE06F06051D9266151DA22DE50DE1065
:10160800D8A409EF0BF00BEF0BF00EEF0BF0010E67
:101618000FEF0BF0000E120060009FF1D9FF600081
:10162800A3F1DAFF6000A7F1DEFF6000ABF1DDFF98
:10163800000120EE02F06751D9266851DA226000D5
:10164800B7F1DEFF6000BBF1DDFF6BC060F06CC07E
:1016580061F06DC062F06EC063F0DDEC0BF000016C
:1016680020EE04F06751D9266851DA22600083F130
:10167800DEFF600087F1DDFF20EE06F06751D92616
:101688006851DA22000EDE6E000EDD6E20EE08F0E4
:101698006751D9266851DA22000EDE6E000EDD6E23
:1016A8001200DB0E0001606F000E616F7EEC0DF022
:1016B8000009D8A462EF0BF064EF0BF098EF0BF081
:1016C80020EECFF002D873EF0BF00500FA6EDE5073
:1016D800FD6EDE50FE6EF850FF6EFA5012000009E3
:1016E800D8B479EF0BF07BEF0BF098EF0BF0DB0E33
:1016F80000016C6F000E6D6F760E6E6F000E6F6FCF
:101708004EEC08F0760E00016B6F000E6C6F02D87D
:1017180098EF0BF00500FA6ECD51FD6ECE51FE6EBE
:10172800F850FF6EFA501200120000016B516C1154
:10173800D8A4A1EF0BF0A3EF0BF0A5EF0BF0DCEFB3
:101748000BF06000AFF1D9FF6000B3F1DAFFAB0E28
:10175800DE6E060EDD6E64C060F065C061F06BC0C1
:1017680062F06CC063F06EEC0EF0000120EE05F044
:101778006B51D9266C51DA226000A3F1DFFF20EE0D
:1017880006F06B51D9266C51DA226A51DF6E20EED1
:1017980007F06B51D9266C51DA226000A7F1DFFF00
:1017A80020EE02F06B51D9266C51DA22050EDF6E5D
:1017B8001200000E0001666F000E656F6251631122
:1017C800D8B4E9EF0BF0EBEF0BF013EF0CF0010ED0
:1017D800646FF3EF0BF0D89062376337642B63AF15
:1017E800F8EF0BF0FAEF0BF0EFEF0BF0D89065374E
:1017F80066376251605D63516159D8A006EF0CF0FD
:1018080008EF0CF00DEF0CF06251605F6351615B03
:101818006581D89063336233642FFAEF0BF065C0AB
:1018280060F066C061F01200000120EE04F066511D
:10183800D9266751DA22DE50685DDE506959D8A092
:1018480028EF0CF02AEF0CF030EF0CF0000E676F69
:10185800000E666F46EF0CF020EE02F06651D926B6
:101868006751DA226F0078FF60F06F0074FF61F053
:1018780068C062F069C063F02DEC0EF060C066F0DD
:1018880061C067F0120062C069F063C06AF060C0AE
:1018980067F061C068F066EF0CF06000A7F1D9FF4F
:1018A8006000ABF1DAFFDF50666F694B6A2B6000AE
:1018B8009FF1D9FF6000A3F1DAFF60009BF1DFFF21
:1018C800674B682B00016407D8A06507642906E107
:1018D8006529D8A472EF0CF074EF0CF051EF0CF0FE
:1018E8001200000E3E01DE6F000EDF6F000EE06F8B
:1018F800000EE16F000EE46F000EE56F000EEA6F58
:10190800000EEC6F000EF16F000EF36F000EF46F17
:10191800000EF56F000EF66F000EF76F000EF96FF0
:10192800000EFA6F000EFB6F000EFC6F030EFD6FCA
:10193800000EFE6F000EFF6F840EF86F120003C0DA
:1019480009F004C00AF001C007F002C008F0C2EFB5
:101958000CF0600027F0D9FF60002BF0DAFFDF50B1
:101968000B6E094A0A2A60001FF0D9FF600023F0B5
:10197800DAFF60002FF0DFFF074A082A0506D8A023
:101988000606052806E10628D8A4CDEF0CF0CFEF0F
:101998000CF0ADEF0CF0120005500610D8A4D7EFEC
:1019A8000CF0D9EF0CF0DDEF0CF005680668FCEFE1
:1019B8000CF005C001F006C002F0FDEC0CF001C00F
:1019C80008F002C009F0600E08180910D8A4EFEF5B
:1019D8000CF0F1EF0CF0D9EF0CF020EE06F005500A
:1019E800D9260650DA22DF50076E0750056E066AC0
:1019F800120001500210D8A404EF0DF006EF0DF00C
:101A08000CEF0DF0000E026E000E016E1EEF0DF0D1
:101A1800600007F0D9FF60000BF0DAFF6F0078FF75
:101A280003F06F0074FF04F0E00E0314016E070E5C
:101A38000414026E1200F2EC0EF060C066F061C091
:101A480067F062C068F063C069F0000E00016A6F59
:101A5800000E6B6F000E6C6F000E6D6F780E6E6F60
:101A6800000E6F6FCAEC07F0780E0001766F000E5B
:101A7800776FD7EC0DF012000001646F600093F1EE
:101A8800F1FE3E01F88FF89DF881F8B14EEF0DF0A8
:101A980050EF0DF049EF0DF0F0510001636F626BEC
:101AA8003E01EF5100016225606F3E01000E00010A
:101AB8006321616F12003901A551D8B466EF0DF0AA
:101AC80068EF0DF06AEF0DF072EC02F0390193AF98
:101AD80070EF0DF072EF0DF07DEF0DF0A3AF77EF23
:101AE8000DF079EF0DF07DEF0DF094EC0EF039016B
:101AF800A39F1100000120EE06F06051D926615124
:101B0800DA2210EE08F06051E1266151E222DE503F
:101B1800E61807E1DE50E618D8A495EF0DF097EF28
:101B28000DF09AEF0DF0010E9BEF0DF0000E120074
:101B3800000EBA6E000EBB6E000EBC6EC268C368A3
:101B4800E70EC46EE70E3A01606F50694069000EF7
:101B5800816F000E516F000E416F000E616F000E15
:101B6800426F000E526F000E626F120000EE00F11D
:101B7800640EEE6AE806FDE100EECDF0180EEE6A9E
:101B8800E806FDE100EE2DF0070EEE6AE806FDE13D
:101B9800080ED56E000ED66E000ED76E000EF86ECB
:101BA800000163EF01F0DB0E0001606F000E616F52
:101BB800B7EC0AF00009D8B4E4EF0DF0E6EF0DF049
:101BC800E8EF0DF0F3EF0DF0DB0E00016C6F000E87
:101BD8006D6F76C06EF077C06FF0C0EC08F0120041
:101BE800000120EE03F06451D9266551DA22600025
:101BF8008BF1DFFF20EE04F06451D9266551DA221B
:101C0800600087F1DFFF20EE05F06451D9266551A9
:101C1800DA22600083F1DFFF120073C0CDF074C0D8
:101C2800CEF075C0CFF076C0D0F0DB0E0001676F44
:101C3800000E686F6FC069F070C06AF071C06BF019
:101C480072C06CF0000E6E6F0B0E6D6F10EC0BF027
:101C580012000001605162036F00CCFF64F06F0056
:101C6800D0FF65F060516303F3506527615162034B
:101C7800F350652764C060F065C061F01200700E13
:101C88003901D96FDBA94BEF0EF04DEF0EF046EF9F
:101C98000EF0700EDA19D8B454EF0EF056EF0EF0BD
:101CA80058EF0EF056EF0EF0120001500210D8A4B3
:101CB80060EF0EF062EF0EF065EF0EF0000E6DEFC4
:101CC8000EF0600007F0D9FF60000BF0DAFFDF507C
:101CD8001F0B1200000120EE03F06251D926635158
:101CE800DA226151DF6E20EE04F06251D926635189
:101CF800DA22600083F1DFFF120068C060F069C07B
:101D080061F00001626B8E0E636F000E646F45EC2C
:101D180007F060C068F061C069F062C06AF0120044
:101D2800400E33267D0E33649CEF0EF09EEF0EF0CE
:101D3800A6EF0EF07D0E335E010E2D26000E2E222C
:101D48002F2230221200000E3901C06F000EC16F21
:101D5800000EC26F000EC36F000EC46F000EC56F79
:101D6800000EC66F000EC76F12003901938FB89E20
:101D7800B898F00EB816F00EB916B9501F0BA00996
:101D8800B96EB998B88E12003701E0A7CEEF0EF001
:101D9800D1EF0EF0010ED2EF0EF0000E1200A7ECFC
:101DA8000EF09CEC0DF043EC0EF075EC0CF013EC1F
:101DB8000FF01200CBB8E3EF0EF0E6EF0EF0010ED5
:101DC800E7EF0EF0000E1200CBB6EDEF0EF0F0EFDD
:101DD8000EF0010EF1EF0EF0000E12002DC060F0B3
:101DE8002EC061F02FC062F030C063F012002DC029
:101DF80001F02EC002F02FC003F030C004F0120032
:101E0800C39ABB9AC3883A015099C3865097120067
:101E1800C494BC84C496BC86C498BC881200830E43
:101E28003E01C16F1200BC96BB9A1200BC86BB8AE9
:101E380012000001D95112003E01F89D1200010E56
:021E4800120086
:020000040020DA
:10000000FF0FFF0FFF0FFF0FFF0FFF0FFF0FFF0F80
:020000040030CA
:0A000000EAFFF7FF9FFFFFFFFFFF7D
:00000001FF
